:100000005CC000006AC0000068C0000066C000005C
:1000100064C0000062C0000060C000005EC000005C
:100020005CC000005AC0000058C0000056C000006C
:1000300054C0000052C0000050C000004EC000007C
:100040004CC000004AC0000048C0000046C000008C
:1000500044C0000042C0000040C000003EC000009C
:100060003CC000003AC0000038C0000036C00000AC
:1000700034C0000032C0000030C000002EC00000BC
:100080002CC000002AC0000028C00000084AD73B4E
:100090003BCE016E84BCBFFDC12F3D6C74319ABD57
:1000A00056833DDA3D00C77F11BED9E4BB4C3E917B
:1000B0006BAAAABE000000803F0011241FBECFEF34
:1000C000D0E1DEBFCDBF21E0A0E0B1E001C01D92D4
:1000D000A931B207E1F7E1D0FBC492CF6BE380ED29
:1000E00022D210920A0180930B016CE380ED1BD2A7
:1000F00060910A0170910B01682B70930B01609362
:100100000A01072E000C880B990B45D320E030E044
:1001100040E858E320D420910D0130910E01409128
:100120000F01509110013CC26DE380EDFCD11092A3
:100130000401809305016EE380EDF5D16091040127
:1001400070910501682B7093050160930401072EDF
:10015000000C880B990B1FD320E030E040E858E3F7
:10016000FAD320911401309115014091160150915C
:10017000170116C26FE380EDD6D180910401109271
:1001800008018093090160E480EDCDD16091080100
:1001900070910901682B7093090160930801072E83
:1001A000000C880B990BF7D220E030E040E858E3D0
:1001B000D2D3209100013091010140910201509170
:1001C0000301EEC14F925F926F927F928F929F9246
:1001D000AF92BF92CF92DF92EF92FF92CF93DF93D5
:1001E000C4EFD1E0412C512C320173016201530163
:1001F000420174DF9B01AC01C501B401D2D14B01B6
:100200005C0192DF9B01AC01C701B601CAD16B0151
:100210007C01B0DF9B01AC01C301B201C2D12B0153
:100220003C01219731F720E030E04AEF53E449D216
:100230006093000170930101809302019093030188
:1002400020E030E04AEF53E4C501B4013AD26093B4
:100250000D0170930E0180930F019093100120E027
:1002600030E04AEF53E4C701B6012BD2609314018A
:10027000709315018093160190931701DF91CF9130
:10028000FF90EF90DF90CF90BF90AF909F908F90B6
:100290007F906F905F904F900895CF93DF9300D041
:1002A00000D0CDB7DEB760E083E390E04DD1FFD062
:1002B00089DF40E06BE680ED22D110DF4B015C016D
:1002C00033DF6B017C0156DF9B01AC0144D36983B2
:1002D0007A838B839C83A7019601C701B6013BD328
:1002E0002B013C0129813A814B815C81C301B20120
:1002F00058D198D39B01AC01C501B401E2D1B5D16D
:1003000090582CE930E345E652E425D32B013C011B
:10031000A5019401C501B4011ED329813A814B8105
:100320005C813FD17FD39B01AC01C701B601C9D12C
:100330009CD190582CE930E345E652E40CD36B0194
:100340007C0160E08DE01ED120E030E040EA51EC1D
:10035000C301B201F5D21816FCF420E030E040EA07
:1003600051E4C301B201A9D18823B4F420E030E004
:1003700040EA51ECC701B601E3D218166CF420E054
:1003800030E040EA51E4C701B60197D1882324F454
:1003900060E083E7F7D06EC020E030E0A901C30140
:1003A000B201CED21816C4F420E030E0A901C70192
:1003B000B601C6D218160CF067C0A7019601C3019A
:1003C000B201BED2181624F460E082E6DBD052C03F
:1003D00060E08CE6D7D04EC020E030E0A901C30138
:1003E000B2016BD18823BCF420E030E0A901C70141
:1003F000B60163D188237CF4A7019601C301B20141
:100400009FD2181624F460E082E7BCD033C060E0CD
:1004100086E6B8D02FC020E030E0A901C301B201C8
:100420008FD21816C4F420E030E0A901C701B6014C
:1004300044D1882384F4A70196015058C301B20126
:100440007FD2181624F460E082E69CD013C060E0EE
:1004500082E798D00FC0A30192015058C701B6019E
:100460002CD1882324F460E086E68CD003C060E0C1
:100470008CE688D02FEF81EE94E0215080409040B0
:10048000E1F700C0000019CF20E030E0A901C3016E
:10049000B20113D188230CF0C6CF20E030E0A901CF
:1004A000C701B6010AD188230CF0BDCFA5CF1092A9
:1004B000710080E280937000089584EA8093740054
:1004C000E4E7F0E080818823ECF7089580937300DF
:1004D00084E880937400E4E7F0E080818823ECF7FF
:1004E000089584E880937400E4E7F0E08081882335
:1004F000ECF78091730094E99093740008951F9332
:10050000CF93DF93182FD62FC42FD7DF812FDEDFB5
:100510008D2FDCDF8C2FDADF84E980937400DF918C
:10052000CF911F910895CF93DF93C82FD62FC5DFAA
:100530008C2FCCDF8D2FCADFC0DF81E08C0FC6DFB0
:10054000D0DFDF91CF9108957894662379F090936E
:10055000980080939900EAE9F0E0808188618083C7
:10056000EDE9F0E0808186608083089590939000AB
:1005700089B98AB188618AB9E5E9F0E0808186604D
:1005800080830895662341F0EBE9F0E0908195FFC8
:10059000FDCF80939C0008955D9BFECF8CB908959C
:1005A0005058BB27AA270ED091C182D130F087D1F5
:1005B00020F031F49F3F11F41EF452C10EF4E09587
:1005C000E7FB48C1E92F93D180F3BA17620773079D
:1005D0008407950718F071F49EF5ABC10EF4E09511
:1005E0000B2EBA2FA02D0B01B90190010C01CA01ED
:1005F000A0011124FF27591B99F0593F50F4503E98
:1006000068F11A16F040A22F232F342F4427585F89
:10061000F3CF469537952795A795F0405395C9F7A1
:100620007EF41F16BA0B620B730B840BBAF0915059
:10063000A1F0FF0FBB1F661F771F881FC2F70EC0F8
:10064000BA0F621F731F841F48F4879577956795CB
:10065000B795F7959E3F08F0B3CF9395880F08F0B4
:100660009927EE0F979587950895DF93DD27B92F8A
:10067000BF7740E85FE31616170648075B0710F4DC
:10068000D92F62D19F938F937F936F9309D2ECE818
:10069000F0E0E9D01BD12F913F914F915F9167D14D
:1006A000DD2349F09058A2EA2AED3FE049EC5FE3F0
:1006B000D0785D2787DFDF9109C1A8D008F481E0F9
:1006C00008950CD003C1FBD040F0F2D030F021F4FB
:1006D0005F3F19F0BFC051112DC1C2C008D198F3BE
:1006E0009923C9F35523B1F3951B550BBB27AA27B3
:1006F00062177307840738F09F5F5F4F220F331F25
:10070000441FAA1FA9F333D00E2E3AF0E0E830D0F0
:1007100091505040E695001CCAF729D0FE2F27D0F3
:10072000660F771F881FBB1F261737074807AB07C1
:10073000B0E809F0BB0B802DBF01FF2793585F4F36
:100740002AF09E3F510568F085C0F4C05F3FECF38E
:10075000983EDCF3869577956795B795F7959F5FFB
:10076000C9F7880F911D9695879597F90895E1E04F
:10077000660F771F881FBB1F621773078407BA07AE
:1007800020F0621B730B840BBA0BEE1F88F7E09509
:100790000895E89409C097FB3EF490958095709574
:1007A00061957F4F8F4F9F4F9923A9F0F92F96E9BD
:1007B000BB279395F695879577956795B795F11132
:1007C000F8CFFAF4BB0F11F460FF1BC06F5F7F4FCF
:1007D0008F4F9F4F16C0882311F096E911C07723E1
:1007E00021F09EE8872F762F05C0662371F096E8EA
:1007F000862F70E060E02AF09A95660F771F881FB9
:10080000DAF7880F9695879597F90895990F00085C
:10081000550FAA0BE0E8FEEF16161706E807F907D2
:10082000C0F012161306E407F50798F0621B730B6D
:10083000840B950B39F40A2661F0232B242B252BEE
:1008400021F408950A2609F4A140A6958FEF811D91
:10085000811D089597F99F6780E870E060E0089532
:100860009FEF80EC0895DF93CF931F930F93FF9238
:10087000EF92DF927B018C01689405C0DA2EEF01C4
:1008800076D0FE01E894A591259135914591559139
:10089000AEF3EF0197DEFE019701A801DA9479F734
:1008A000DF90EF90FF900F911F91CF91DF9108950E
:1008B00000240A941616170618060906089500243F
:1008C0000A9412161306140605060895092E0394B9
:1008D000000C11F4882352F0BB0F40F4BF2B11F42D
:1008E00060FF04C06F5F7F4F8F4F9F4F089557FD8C
:1008F0009058440F551F59F05F3F71F04795880F8E
:1009000097FB991F61F09F3F79F087950895121624
:1009100013061406551FF2CF4695F1DF08C01616D0
:1009200017061806991FF1CF869571056105089481
:100930000895E894BB2766277727CB0197F9089598
:1009400065DF08F48FEF08959B01AC0160E070E073
:1009500080E89FE3B6CE0BD0B9CFAADF28F0AFDF97
:1009600018F0952309F076CF7BCF1124E3CFBFDFBA
:10097000A0F3959FD1F3950F50E0551F629FF001B2
:10098000729FBB27F00DB11D639FAA27F00DB11D0B
:10099000AA1F649F6627B00DA11D661F829F222794
:1009A000B00DA11D621F739FB00DA11D621F839F1B
:1009B000A00D611D221F749F3327A00D611D231FF1
:1009C000849F600D211D822F762F6A2F11249F573F
:1009D00050408AF0E1F088234AF0EE0FFF1FBB1F62
:1009E000661F771F881F91505040A9F79E3F510501
:1009F00070F030CF9FCF5F3FECF3983EDCF38695ED
:100A000077956795B795F795E7959F5FC1F7FE2BAB
:100A1000880F911D9695879597F9089511F40EF416
:100A20001FCF41C06CDFD0F39923D9F3CEF39F578A
:100A3000550B87FF46D00024A0E640EA900180587D
:100A40005695979528F4805C660F771F881F20F0D5
:100A500026173707480730F4621B730B840B2029D5
:100A600031294A2BA69517940794202531254A272A
:100A700058F7660F771F881F20F02617370748079B
:100A800030F4620B730B840B200D311D411DA095BA
:100A900081F7B901842F9158880F9695879508950D
:100AA0009B01AC0158CF9F3F31F0915020F48795C6
:100AB00077956795B795880F911D9695879597F9C6
:100AC000089591505040660F771F881FD2F7089500
:040AD000F894FFCFC8
:00000001FF
