:1000000045C0000058C0000056C0000054C00000A9
:1000100052C0000050C000004EC000004CC00000A4
:100020004AC0000048C0000046C0000044C00000B4
:1000300042C0000040C000003EC000003CC00000C4
:100040003AC0000038C0000036C0000034C00000D4
:1000500032C0000030C000002EC000002CC00000E4
:100060002AC0000028C0000026C0000024C00000F4
:1000700022C0000020C000001EC000001CC0000004
:100080001AC0000018C0000016C0000011241FBED6
:10009000CFEFD0E1DEBFCDBF11E0A0E0B1E0E2E202
:1000A000F1E000E00BBF02C007900D92A830B1074D
:1000B000D9F718D034C0A4CFEBE9F0E0908195FFD8
:1000C000FDCF80939C000895CF93DF93EC0188814E
:1000D000882329F02196F0DF89918111FCCFDF91EF
:1000E000CF910895CF93DF93CDB7DEB727970FB6A3
:1000F000F894DEBF0FBECDBF87E0E0E0F1E0DE01A7
:10010000119601900D928A95E1F7CE010196DCDF00
:100110008FE19EE40197F1F700C00000EDCFF89465
:02012000FFCF0F
:080122006B616C617368000061
:00000001FF
