S01100006164632020746573742E73726563EB
S113000045C000004BC0000049C0000047C00000CC
S113001045C0000043C0000041C000003FC00000D4
S11300203DC000003BC0000039C0000037C00000E4
S113003035C0000033C0000031C000002FC00000F4
S11300402DC000002BC0000029C0000027C0000004
S113005025C0000023C0000021C000001FC0000014
S11300601DC000001BC0000019C0000017C0000024
S113007015C0000013C0000011C000000FC0000034
S11300800DC000000BC0000009C0000011241FBEF9
S1130090CFEFD0E1DEBFCDBF25D029C0B1CF1092C4
S11300A0980083E380939900EAE9F0E08081886115
S11300B08083EDE9F0E080818660808380818062C6
S11300C0808308953E9A329A379A08953699FECFDE
S11300D085B10895EBE9F0E0908195FFFDCF809321
S11300E09C000895DCDFEEDFF1DFF4DFFDCFF89450
S10500F0FFCF3C
S9030000FC
