S012000072656365697665696E742E73726563E4
S113000045C000004BC0000049C0000047C00000CC
S113001045C0000043C0000041C000003FC00000D4
S11300203DC000003BC0000039C0000037C00000E4
S113003035C0000033C0000031C000002FC00000F4
S11300402DC000002BC0000029C0000027C0000004
S113005025C0000023C0000021C000001FC0000014
S11300601DC000001BC0000019C0000017C0000024
S113007015C0000013C0000011C000000FC0000034
S11300800DC000000BC0000009C0000011241FBEF9
S1130090CFEFD0E1DEBFCDBF02D050C0B1CF60E022
S11300A083E390E01FD0789405E51AEAD1E1C4E433
S11300B080E036D0863609F405BB80E031D0823644
S11300C009F415BB80E02CD08C3609F4D5BB80E054
S11300D027D0823709F4C5BB80E022D0833741F7AB
S11300E015BAE6CF7894662379F0909398008093BC
S11300F09900EAE9F0E0808188618083EDE9F0E02D
S113010080818660808308959093900089B98AB134
S113011088618AB9E5E9F0E080818660808308958A
S1130120882341F0EBE9F0E080818823ECF78091AB
S11301309C0008955F9BFECF8CB10895F894FFCF87
S9030000FC
