:1000000045C000004BC0000049C0000047C00000D0
:1000100045C0000043C0000041C000003FC00000D8
:100020003DC000003BC0000039C0000037C00000E8
:1000300035C0000033C0000031C000002FC00000F8
:100040002DC000002BC0000029C0000027C0000008
:1000500025C0000023C0000021C000001FC0000018
:100060001DC000001BC0000019C0000017C0000028
:1000700015C0000013C0000011C000000FC0000038
:100080000DC000000BC0000009C0000011241FBEFD
:10009000CFEFD0E1DEBFCDBF02D048C0B1CF14BAA0
:1000A00015BA61E083E390E007D0C4E481E030D08A
:1000B00061E020D0C5BBFACF7894662379F09093A5
:1000C000980080939900EAE9F0E08081886180835C
:1000D000EDE9F0E080818660808308959093900040
:1000E00089B98AB188618AB9E5E9F0E080818660E2
:1000F00080830895662341F0EBE9F0E0908195FF5D
:10010000FDCF80939C0008955D9BFECF8CB9089530
:10011000882341F0EBE9F0E080818823ECF78091BF
:100120009C0008955F9BFECF8CB10895F894FFCF9B
:00000001FF
